{
  "abi": [
    {
      "inputs": [
        {
          "internalType": "contract IEAS",
          "name": "eas",
          "type": "address"
        }
      ],
      "stateMutability": "nonpayable",
      "type": "constructor"
    },
    {
      "inputs": [],
      "name": "InvalidEAS",
      "type": "error"
    },
    {
      "anonymous": false,
      "inputs": [
        {
          "indexed": true,
          "internalType": "address",
          "name": "owner",
          "type": "address"
        },
        {
          "indexed": true,
          "internalType": "address",
          "name": "approved",
          "type": "address"
        },
        {
          "indexed": true,
          "internalType": "uint256",
          "name": "tokenId",
          "type": "uint256"
        }
      ],
      "name": "Approval",
      "type": "event"
    },
    {
      "anonymous": false,
      "inputs": [
        {
          "indexed": true,
          "internalType": "address",
          "name": "owner",
          "type": "address"
        },
        {
          "indexed": true,
          "internalType": "address",
          "name": "operator",
          "type": "address"
        },
        {
          "indexed": false,
          "internalType": "bool",
          "name": "approved",
          "type": "bool"
        }
      ],
      "name": "ApprovalForAll",
      "type": "event"
    },
    {
      "anonymous": false,
      "inputs": [
        {
          "indexed": false,
          "internalType": "uint256",
          "name": "_fromTokenId",
          "type": "uint256"
        },
        {
          "indexed": false,
          "internalType": "uint256",
          "name": "_toTokenId",
          "type": "uint256"
        }
      ],
      "name": "BatchMetadataUpdate",
      "type": "event"
    },
    {
      "anonymous": false,
      "inputs": [
        {
          "indexed": false,
          "internalType": "uint256",
          "name": "_tokenId",
          "type": "uint256"
        }
      ],
      "name": "MetadataUpdate",
      "type": "event"
    },
    {
      "anonymous": false,
      "inputs": [
        {
          "indexed": true,
          "internalType": "address",
          "name": "previousOwner",
          "type": "address"
        },
        {
          "indexed": true,
          "internalType": "address",
          "name": "newOwner",
          "type": "address"
        }
      ],
      "name": "OwnershipTransferred",
      "type": "event"
    },
    {
      "anonymous": false,
      "inputs": [
        {
          "indexed": true,
          "internalType": "address",
          "name": "from",
          "type": "address"
        },
        {
          "indexed": true,
          "internalType": "address",
          "name": "to",
          "type": "address"
        },
        {
          "indexed": true,
          "internalType": "uint256",
          "name": "tokenId",
          "type": "uint256"
        }
      ],
      "name": "Transfer",
      "type": "event"
    },
    {
      "inputs": [
        {
          "internalType": "address",
          "name": "to",
          "type": "address"
        },
        {
          "internalType": "uint256",
          "name": "tokenId",
          "type": "uint256"
        }
      ],
      "name": "approve",
      "outputs": [],
      "stateMutability": "nonpayable",
      "type": "function"
    },
    {
      "inputs": [
        {
          "internalType": "address",
          "name": "owner",
          "type": "address"
        }
      ],
      "name": "balanceOf",
      "outputs": [
        {
          "internalType": "uint256",
          "name": "",
          "type": "uint256"
        }
      ],
      "stateMutability": "view",
      "type": "function"
    },
    {
      "inputs": [
        {
          "internalType": "string",
          "name": "_name",
          "type": "string"
        },
        {
          "internalType": "uint256",
          "name": "_minWorkoutDuration",
          "type": "uint256"
        },
        {
          "internalType": "uint256",
          "name": "_minStakeAmount",
          "type": "uint256"
        },
        {
          "internalType": "uint256",
          "name": "_questDifficulty",
          "type": "uint256"
        },
        {
          "internalType": "uint256",
          "name": "_maxQuestDuration",
          "type": "uint256"
        }
      ],
      "name": "createQuest",
      "outputs": [],
      "stateMutability": "nonpayable",
      "type": "function"
    },
    {
      "inputs": [
        {
          "internalType": "uint256",
          "name": "_challengeId",
          "type": "uint256"
        }
      ],
      "name": "failQuest",
      "outputs": [],
      "stateMutability": "payable",
      "type": "function"
    },
    {
      "inputs": [
        {
          "internalType": "uint256",
          "name": "tokenId",
          "type": "uint256"
        }
      ],
      "name": "getApproved",
      "outputs": [
        {
          "internalType": "address",
          "name": "",
          "type": "address"
        }
      ],
      "stateMutability": "view",
      "type": "function"
    },
    {
      "inputs": [
        {
          "internalType": "uint256",
          "name": "_challengeId",
          "type": "uint256"
        }
      ],
      "name": "getAttestationUidFromQuestChallenge",
      "outputs": [
        {
          "internalType": "bytes32",
          "name": "",
          "type": "bytes32"
        }
      ],
      "stateMutability": "view",
      "type": "function"
    },
    {
      "inputs": [],
      "name": "getQuestChallenges",
      "outputs": [
        {
          "components": [
            {
              "internalType": "uint256",
              "name": "challengeId",
              "type": "uint256"
            },
            {
              "internalType": "uint256",
              "name": "questTokenId",
              "type": "uint256"
            },
            {
              "internalType": "address",
              "name": "submitter",
              "type": "address"
            },
            {
              "internalType": "uint256",
              "name": "workoutDuration",
              "type": "uint256"
            },
            {
              "internalType": "uint256",
              "name": "stakeAmount",
              "type": "uint256"
            },
            {
              "internalType": "uint256",
              "name": "startTime",
              "type": "uint256"
            },
            {
              "internalType": "bool",
              "name": "completed",
              "type": "bool"
            },
            {
              "internalType": "bytes32",
              "name": "attestationUid",
              "type": "bytes32"
            }
          ],
          "internalType": "struct OptimismQuestManager.QuestChallenges[]",
          "name": "",
          "type": "tuple[]"
        }
      ],
      "stateMutability": "view",
      "type": "function"
    },
    {
      "inputs": [],
      "name": "getQuests",
      "outputs": [
        {
          "components": [
            {
              "internalType": "uint256",
              "name": "tokenId",
              "type": "uint256"
            },
            {
              "internalType": "string",
              "name": "name",
              "type": "string"
            },
            {
              "internalType": "address",
              "name": "creator",
              "type": "address"
            },
            {
              "internalType": "uint256",
              "name": "minStakeAmount",
              "type": "uint256"
            },
            {
              "internalType": "uint256",
              "name": "minWorkoutDuration",
              "type": "uint256"
            },
            {
              "internalType": "uint256",
              "name": "questDifficulty",
              "type": "uint256"
            },
            {
              "internalType": "uint256",
              "name": "maxQuestDuration",
              "type": "uint256"
            },
            {
              "internalType": "address[]",
              "name": "completedUsers",
              "type": "address[]"
            }
          ],
          "internalType": "struct OptimismQuestManager.Quest[]",
          "name": "",
          "type": "tuple[]"
        }
      ],
      "stateMutability": "view",
      "type": "function"
    },
    {
      "inputs": [
        {
          "internalType": "address",
          "name": "owner",
          "type": "address"
        },
        {
          "internalType": "address",
          "name": "operator",
          "type": "address"
        }
      ],
      "name": "isApprovedForAll",
      "outputs": [
        {
          "internalType": "bool",
          "name": "",
          "type": "bool"
        }
      ],
      "stateMutability": "view",
      "type": "function"
    },
    {
      "inputs": [],
      "name": "minPowTokensEasyDifficulty",
      "outputs": [
        {
          "internalType": "uint256",
          "name": "",
          "type": "uint256"
        }
      ],
      "stateMutability": "view",
      "type": "function"
    },
    {
      "inputs": [],
      "name": "minPowTokensHardDifficulty",
      "outputs": [
        {
          "internalType": "uint256",
          "name": "",
          "type": "uint256"
        }
      ],
      "stateMutability": "view",
      "type": "function"
    },
    {
      "inputs": [],
      "name": "minPowTokensMediumDifficulty",
      "outputs": [
        {
          "internalType": "uint256",
          "name": "",
          "type": "uint256"
        }
      ],
      "stateMutability": "view",
      "type": "function"
    },
    {
      "inputs": [],
      "name": "name",
      "outputs": [
        {
          "internalType": "string",
          "name": "",
          "type": "string"
        }
      ],
      "stateMutability": "view",
      "type": "function"
    },
    {
      "inputs": [],
      "name": "numOfQuestChallenges",
      "outputs": [
        {
          "internalType": "uint256",
          "name": "",
          "type": "uint256"
        }
      ],
      "stateMutability": "view",
      "type": "function"
    },
    {
      "inputs": [
        {
          "internalType": "address",
          "name": "",
          "type": "address"
        },
        {
          "internalType": "address",
          "name": "",
          "type": "address"
        },
        {
          "internalType": "uint256",
          "name": "",
          "type": "uint256"
        },
        {
          "internalType": "bytes",
          "name": "",
          "type": "bytes"
        }
      ],
      "name": "onERC721Received",
      "outputs": [
        {
          "internalType": "bytes4",
          "name": "",
          "type": "bytes4"
        }
      ],
      "stateMutability": "nonpayable",
      "type": "function"
    },
    {
      "inputs": [],
      "name": "owner",
      "outputs": [
        {
          "internalType": "address",
          "name": "",
          "type": "address"
        }
      ],
      "stateMutability": "view",
      "type": "function"
    },
    {
      "inputs": [
        {
          "internalType": "uint256",
          "name": "tokenId",
          "type": "uint256"
        }
      ],
      "name": "ownerOf",
      "outputs": [
        {
          "internalType": "address",
          "name": "",
          "type": "address"
        }
      ],
      "stateMutability": "view",
      "type": "function"
    },
    {
      "inputs": [
        {
          "internalType": "uint256",
          "name": "",
          "type": "uint256"
        }
      ],
      "name": "questChallenges",
      "outputs": [
        {
          "internalType": "uint256",
          "name": "challengeId",
          "type": "uint256"
        },
        {
          "internalType": "uint256",
          "name": "questTokenId",
          "type": "uint256"
        },
        {
          "internalType": "address",
          "name": "submitter",
          "type": "address"
        },
        {
          "internalType": "uint256",
          "name": "workoutDuration",
          "type": "uint256"
        },
        {
          "internalType": "uint256",
          "name": "stakeAmount",
          "type": "uint256"
        },
        {
          "internalType": "uint256",
          "name": "startTime",
          "type": "uint256"
        },
        {
          "internalType": "bool",
          "name": "completed",
          "type": "bool"
        },
        {
          "internalType": "bytes32",
          "name": "attestationUid",
          "type": "bytes32"
        }
      ],
      "stateMutability": "view",
      "type": "function"
    },
    {
      "inputs": [
        {
          "internalType": "uint256",
          "name": "",
          "type": "uint256"
        }
      ],
      "name": "quests",
      "outputs": [
        {
          "internalType": "uint256",
          "name": "tokenId",
          "type": "uint256"
        },
        {
          "internalType": "string",
          "name": "name",
          "type": "string"
        },
        {
          "internalType": "address",
          "name": "creator",
          "type": "address"
        },
        {
          "internalType": "uint256",
          "name": "minStakeAmount",
          "type": "uint256"
        },
        {
          "internalType": "uint256",
          "name": "minWorkoutDuration",
          "type": "uint256"
        },
        {
          "internalType": "uint256",
          "name": "questDifficulty",
          "type": "uint256"
        },
        {
          "internalType": "uint256",
          "name": "maxQuestDuration",
          "type": "uint256"
        }
      ],
      "stateMutability": "view",
      "type": "function"
    },
    {
      "inputs": [],
      "name": "renounceOwnership",
      "outputs": [],
      "stateMutability": "nonpayable",
      "type": "function"
    },
    {
      "inputs": [
        {
          "internalType": "address",
          "name": "from",
          "type": "address"
        },
        {
          "internalType": "address",
          "name": "to",
          "type": "address"
        },
        {
          "internalType": "uint256",
          "name": "tokenId",
          "type": "uint256"
        }
      ],
      "name": "safeTransferFrom",
      "outputs": [],
      "stateMutability": "nonpayable",
      "type": "function"
    },
    {
      "inputs": [
        {
          "internalType": "address",
          "name": "from",
          "type": "address"
        },
        {
          "internalType": "address",
          "name": "to",
          "type": "address"
        },
        {
          "internalType": "uint256",
          "name": "tokenId",
          "type": "uint256"
        },
        {
          "internalType": "bytes",
          "name": "data",
          "type": "bytes"
        }
      ],
      "name": "safeTransferFrom",
      "outputs": [],
      "stateMutability": "nonpayable",
      "type": "function"
    },
    {
      "inputs": [
        {
          "internalType": "address",
          "name": "operator",
          "type": "address"
        },
        {
          "internalType": "bool",
          "name": "approved",
          "type": "bool"
        }
      ],
      "name": "setApprovalForAll",
      "outputs": [],
      "stateMutability": "nonpayable",
      "type": "function"
    },
    {
      "inputs": [
        {
          "internalType": "uint256",
          "name": "_questTokenId",
          "type": "uint256"
        }
      ],
      "name": "startQuest",
      "outputs": [],
      "stateMutability": "payable",
      "type": "function"
    },
    {
      "inputs": [
        {
          "internalType": "uint256",
          "name": "_challengeId",
          "type": "uint256"
        },
        {
          "internalType": "uint256",
          "name": "_activityDuration",
          "type": "uint256"
        },
        {
          "internalType": "string",
          "name": "_metadataURI",
          "type": "string"
        }
      ],
      "name": "submitQuest",
      "outputs": [],
      "stateMutability": "payable",
      "type": "function"
    },
    {
      "inputs": [
        {
          "internalType": "bytes4",
          "name": "interfaceId",
          "type": "bytes4"
        }
      ],
      "name": "supportsInterface",
      "outputs": [
        {
          "internalType": "bool",
          "name": "",
          "type": "bool"
        }
      ],
      "stateMutability": "view",
      "type": "function"
    },
    {
      "inputs": [],
      "name": "symbol",
      "outputs": [
        {
          "internalType": "string",
          "name": "",
          "type": "string"
        }
      ],
      "stateMutability": "view",
      "type": "function"
    },
    {
      "inputs": [
        {
          "internalType": "uint256",
          "name": "index",
          "type": "uint256"
        }
      ],
      "name": "tokenByIndex",
      "outputs": [
        {
          "internalType": "uint256",
          "name": "",
          "type": "uint256"
        }
      ],
      "stateMutability": "view",
      "type": "function"
    },
    {
      "inputs": [
        {
          "internalType": "address",
          "name": "owner",
          "type": "address"
        },
        {
          "internalType": "uint256",
          "name": "index",
          "type": "uint256"
        }
      ],
      "name": "tokenOfOwnerByIndex",
      "outputs": [
        {
          "internalType": "uint256",
          "name": "",
          "type": "uint256"
        }
      ],
      "stateMutability": "view",
      "type": "function"
    },
    {
      "inputs": [
        {
          "internalType": "uint256",
          "name": "tokenId",
          "type": "uint256"
        }
      ],
      "name": "tokenURI",
      "outputs": [
        {
          "internalType": "string",
          "name": "",
          "type": "string"
        }
      ],
      "stateMutability": "view",
      "type": "function"
    },
    {
      "inputs": [],
      "name": "totalSupply",
      "outputs": [
        {
          "internalType": "uint256",
          "name": "",
          "type": "uint256"
        }
      ],
      "stateMutability": "view",
      "type": "function"
    },
    {
      "inputs": [
        {
          "internalType": "address",
          "name": "from",
          "type": "address"
        },
        {
          "internalType": "address",
          "name": "to",
          "type": "address"
        },
        {
          "internalType": "uint256",
          "name": "tokenId",
          "type": "uint256"
        }
      ],
      "name": "transferFrom",
      "outputs": [],
      "stateMutability": "nonpayable",
      "type": "function"
    },
    {
      "inputs": [
        {
          "internalType": "address",
          "name": "newOwner",
          "type": "address"
        }
      ],
      "name": "transferOwnership",
      "outputs": [],
      "stateMutability": "nonpayable",
      "type": "function"
    }
  ],
  "bytecode": {
    "object": "0x60a06040526000600f556103e86010556107d06011553480156200002257600080fd5b50604051620035393803806200353983398101604081905262000045916200016a565b60405180606001604052806022815260200162003517602291396040805180820190915260048152630504f57560e41b6020820152600062000088838262000241565b50600162000097828262000241565b505050620000b4620000ae6200011460201b60201c565b62000118565b600c80546001600160a01b031916731bb3a8dcaefecd61c9e51e29c3aa38f705f04edc1790556001600160a01b03811662000102576040516341bc07ff60e11b815260040160405180910390fd5b6001600160a01b03166080526200030d565b3390565b600b80546001600160a01b038381166001600160a01b0319831681179093556040519116919082907f8be0079c531659141344cd1fd0a4f28419497f9722a3daafe3b4186f6b6457e090600090a35050565b6000602082840312156200017d57600080fd5b81516001600160a01b03811681146200019557600080fd5b9392505050565b634e487b7160e01b600052604160045260246000fd5b600181811c90821680620001c757607f821691505b602082108103620001e857634e487b7160e01b600052602260045260246000fd5b50919050565b601f8211156200023c57600081815260208120601f850160051c81016020861015620002175750805b601f850160051c820191505b81811015620002385782815560010162000223565b5050505b505050565b81516001600160401b038111156200025d576200025d6200019c565b62000275816200026e8454620001b2565b84620001ee565b602080601f831160018114620002ad5760008415620002945750858301515b600019600386901b1c1916600185901b17855562000238565b600085815260208120601f198616915b82811015620002de57888601518255948401946001909101908401620002bd565b5085821015620002fd5787850151600019600388901b60f8161c191681555b5050505050600190811b01905550565b6080516131ee620003296000396000611c8801526131ee6000f3fe6080604052600436106101ee5760003560e01c806370a082311161010d578063b88d4fde116100a0578063dce6846f1161006f578063dce6846f14610614578063e085f9801461062a578063e28835e31461065d578063e985e9c514610673578063f2fde38b146106bc57600080fd5b8063b88d4fde14610592578063c87b56dd146105b2578063d3f20746146105d2578063d9150fe4146105f257600080fd5b80638da5cb5b116100dc5780638da5cb5b1461052c57806395d89b411461054a5780639e5635441461055f578063a22cb4651461057257600080fd5b806370a082311461041e578063715018a61461043e578063759e6a6f146104535780637adcad8b1461050a57600080fd5b80633584f33b116101855780634f6ccce7116101545780634f6ccce7146103b55780635b7292a2146103d55780636088aea2146103eb5780636352211e146103fe57600080fd5b80633584f33b1461033c578063401ce8221461036c57806342842e0e1461037f578063493ad1a11461039f57600080fd5b8063150b7a02116101c1578063150b7a02146102a457806318160ddd146102dd57806323b872dd146102fc5780632f745c591461031c57600080fd5b806301ffc9a7146101f357806306fdde0314610228578063081812fc1461024a578063095ea7b314610282575b600080fd5b3480156101ff57600080fd5b5061021361020e36600461286c565b6106dc565b60405190151581526020015b60405180910390f35b34801561023457600080fd5b5061023d6106ed565b60405161021f91906128d9565b34801561025657600080fd5b5061026a6102653660046128ec565b61077f565b6040516001600160a01b03909116815260200161021f565b34801561028e57600080fd5b506102a261029d366004612921565b6107a6565b005b3480156102b057600080fd5b506102c46102bf3660046129d7565b6108c0565b6040516001600160e01b0319909116815260200161021f565b3480156102e957600080fd5b506008545b60405190815260200161021f565b34801561030857600080fd5b506102a2610317366004612a53565b6108d1565b34801561032857600080fd5b506102ee610337366004612921565b610902565b34801561034857600080fd5b506102ee6103573660046128ec565b60009081526013602052604090206007015490565b6102a261037a3660046128ec565b610998565b34801561038b57600080fd5b506102a261039a366004612a53565b610c33565b3480156103ab57600080fd5b506102ee60115481565b3480156103c157600080fd5b506102ee6103d03660046128ec565b610c4e565b3480156103e157600080fd5b506102ee60105481565b6102a26103f9366004612aaf565b610ce1565b34801561040a57600080fd5b5061026a6104193660046128ec565b611032565b34801561042a57600080fd5b506102ee610439366004612aff565b611092565b34801561044a57600080fd5b506102a2611118565b34801561045f57600080fd5b506104c161046e3660046128ec565b60136020526000908152604090208054600182015460028301546003840154600485015460058601546006870154600790970154959694956001600160a01b039094169492939192909160ff9091169088565b6040805198895260208901979097526001600160a01b03909516958701959095526060860192909252608085015260a084015290151560c083015260e08201526101000161021f565b34801561051657600080fd5b5061051f61112c565b60405161021f9190612b5e565b34801561053857600080fd5b50600b546001600160a01b031661026a565b34801561055657600080fd5b5061023d611391565b6102a261056d3660046128ec565b6113a0565b34801561057e57600080fd5b506102a261058d366004612c2d565b611525565b34801561059e57600080fd5b506102a26105ad3660046129d7565b611534565b3480156105be57600080fd5b5061023d6105cd3660046128ec565b61156c565b3480156105de57600080fd5b506102a26105ed366004612c69565b611577565b3480156105fe57600080fd5b50610607611606565b60405161021f9190612cc6565b34801561062057600080fd5b506102ee600e5481565b34801561063657600080fd5b5061064a6106453660046128ec565b611764565b60405161021f9796959493929190612d5e565b34801561066957600080fd5b506102ee600f5481565b34801561067f57600080fd5b5061021361068e366004612daa565b6001600160a01b03918216600090815260056020908152604080832093909416825291909152205460ff1690565b3480156106c857600080fd5b506102a26106d7366004612aff565b611832565b60006106e7826118ab565b92915050565b6060600080546106fc90612ddd565b80601f016020809104026020016040519081016040528092919081815260200182805461072890612ddd565b80156107755780601f1061074a57610100808354040283529160200191610775565b820191906000526020600020905b81548152906001019060200180831161075857829003601f168201915b5050505050905090565b600061078a826118d0565b506000908152600460205260409020546001600160a01b031690565b60006107b182611032565b9050806001600160a01b0316836001600160a01b0316036108235760405162461bcd60e51b815260206004820152602160248201527f4552433732313a20617070726f76616c20746f2063757272656e74206f776e656044820152603960f91b60648201526084015b60405180910390fd5b336001600160a01b038216148061083f575061083f813361068e565b6108b15760405162461bcd60e51b815260206004820152603d60248201527f4552433732313a20617070726f76652063616c6c6572206973206e6f7420746f60448201527f6b656e206f776e6572206f7220617070726f76656420666f7220616c6c000000606482015260840161081a565b6108bb838361192f565b505050565b630a85bd0160e11b5b949350505050565b6108db338261199d565b6108f75760405162461bcd60e51b815260040161081a90612e11565b6108bb838383611a1b565b600061090d83611092565b821061096f5760405162461bcd60e51b815260206004820152602b60248201527f455243373231456e756d657261626c653a206f776e657220696e646578206f7560448201526a74206f6620626f756e647360a81b606482015260840161081a565b506001600160a01b03919091166000908152600660209081526040808320938352929052205490565b6000818152601360209081526040808320600181015484526012909252909120600682015460ff1615610a0d5760405162461bcd60e51b815260206004820152601860248201527f517565737420686173206265656e20636f6d706c657465640000000000000000604482015260640161081a565b60068101546005830154610a219042612e74565b1015610a6f5760405162461bcd60e51b815260206004820152601c60248201527f5175657374206368616c6c656e6765206e6f7420796574206f76657200000000604482015260640161081a565b60028101546001600160a01b03163314610ae85760405162461bcd60e51b815260206004820152603460248201527f4f6e6c79207468652063726561746f72206f6620746865207175657374206361604482015273371031b0b636103a3434b990333ab731ba34b7b760611b606482015260840161081a565b336001600160a01b03166108fc60028460040154610b069190612e87565b6040518115909202916000818181858888f19350505050158015610b2e573d6000803e3d6000fd5b5060078101546004830154600091610b5291610b4c90600290612e87565b90611b8c565b905060005b6007830154811015610bc957826007018181548110610b7857610b78612ea9565b60009182526020822001546040516001600160a01b039091169184156108fc02918591818181858888f19350505050158015610bb8573d6000803e3d6000fd5b50610bc281612ebf565b9050610b57565b50600c54600284015460405163b6fd16e160e01b81526001600160a01b03918216600482015291169063b6fd16e190602401600060405180830381600087803b158015610c1557600080fd5b505af1158015610c29573d6000803e3d6000fd5b5050505050505050565b6108bb83838360405180602001604052806000815250611534565b6000610c5960085490565b8210610cbc5760405162461bcd60e51b815260206004820152602c60248201527f455243373231456e756d657261626c653a20676c6f62616c20696e646578206f60448201526b7574206f6620626f756e647360a01b606482015260840161081a565b60088281548110610ccf57610ccf612ea9565b90600052602060002001549050919050565b600083815260136020908152604080832060018101548452601290925290912060028201546001600160a01b03163314610d735760405162461bcd60e51b815260206004820152602d60248201527f596f75206d7573742062652074686973207175657374206368616c6c656e676560448201526c13b99031b430b63632b733b2b960991b606482015260840161081a565b60068101546005830154610d879042612e74565b1115610dce5760405162461bcd60e51b815260206004820152601660248201527554696d6520686173207061737365642c20736f72727960501b604482015260640161081a565b600682015460ff1615610e3a5760405162461bcd60e51b815260206004820152602e60248201527f54686973207175657374206368616c6c656e676520686173206265656e20636f60448201526d6d706c657465642c20736f72727960901b606482015260840161081a565b8060040154841015610e985760405162461bcd60e51b815260206004820152602160248201527f4163746976697479206475726174696f6e206e6f74206c6f6e6720656e6f75676044820152600d60fb1b606482015260840161081a565b6003820184815560068301805460ff19166001908117909155600783018054918201815560009081526020812090910180546001600160a01b03191633179055600c5460048086015493546005860154604051637be3c4c760e01b8152928301959095526024820152604481019390935290916001600160a01b0390911690637be3c4c790606401602060405180830381865afa158015610f3d573d6000803e3d6000fd5b505050506040513d601f19601f82011682018060405250810190610f619190612ed8565b9050610f71338460000154611b9f565b8254610f7d9085611bb9565b6004830154604051339180156108fc02916000818181858888f19350505050158015610fad573d6000803e3d6000fd5b50600c54604051630ff7b2c560e11b8152336004820152602481018390526001600160a01b0390911690631fef658a90604401600060405180830381600087803b158015610ffa57600080fd5b505af115801561100e573d6000803e3d6000fd5b5050505060006110218460010154611c84565b600790940193909355505050505050565b6000818152600260205260408120546001600160a01b0316806106e75760405162461bcd60e51b8152602060048201526018602482015277115490cdcc8c4e881a5b9d985b1a59081d1bdad95b88125160421b604482015260640161081a565b60006001600160a01b0382166110fc5760405162461bcd60e51b815260206004820152602960248201527f4552433732313a2061646472657373207a65726f206973206e6f7420612076616044820152683634b21037bbb732b960b91b606482015260840161081a565b506001600160a01b031660009081526003602052604090205490565b611120611db4565b61112a6000611e0e565b565b60606000611139600d5490565b67ffffffffffffffff8111156111515761115161294b565b6040519080825280602002602001820160405280156111d357816020015b6111c0604051806101000160405280600081526020016060815260200160006001600160a01b0316815260200160008152602001600081526020016000815260200160008152602001606081525090565b81526020019060019003908161116f5790505b50905060005b600d5481101561138b57600060126000838152602001908152602001600020905080604051806101000160405290816000820154815260200160018201805461122190612ddd565b80601f016020809104026020016040519081016040528092919081815260200182805461124d90612ddd565b801561129a5780601f1061126f5761010080835404028352916020019161129a565b820191906000526020600020905b81548152906001019060200180831161127d57829003601f168201915b505050505081526020016002820160009054906101000a90046001600160a01b03166001600160a01b03166001600160a01b03168152602001600382015481526020016004820154815260200160058201548152602001600682015481526020016007820180548060200260200160405190810160405280929190818152602001828054801561135357602002820191906000526020600020905b81546001600160a01b03168152600190910190602001808311611335575b50505050508152505083838151811061136e5761136e612ea9565b6020026020010181905250508061138490612ebf565b90506111d9565b50919050565b6060600180546106fc90612ddd565b6000818152601260205260409020600381015434101561141a5760405162461bcd60e51b815260206004820152602f60248201527f596f75206d757374207374616b6520656e6f75676820657468657220746f206260448201526e1959da5b881d1a1a5cc81c5d595cdd608a1b606482015260840161081a565b600c54604051632999712960e21b81523360048201526000916001600160a01b03169063a665c4a490602401602060405180830381865afa158015611463573d6000803e3d6000fd5b505050506040513d601f19601f820116820180604052508101906114879190612ed8565b905081600501546002036114a9576010548110156114a457600080fd5b6114c4565b81600501546003036114c4576011548110156114c457600080fd5b600e80546000818152601360205260408120918255600182018690556002820180546001600160a01b0319163317905534600483015542600583015560068201805460ff19169055825491929061151a83612ebf565b919050555050505050565b611530338383611e60565b5050565b61153e338361199d565b61155a5760405162461bcd60e51b815260040161081a90612e11565b61156684848484611f2e565b50505050565b60606106e782611f61565b81600114806115865750816002145b806115915750816003145b61159a57600080fd5b60006115a5600d5490565b90506115b5600d80546001019055565b6000818152601260205260409020818155600181016115d48882612f3f565b506002810180546001600160a01b03191633179055600381019490945550600483019390935560058201556006015550565b60606000600e5467ffffffffffffffff8111156116255761162561294b565b6040519080825280602002602001820160405280156116ac57816020015b611699604051806101000160405280600081526020016000815260200160006001600160a01b03168152602001600081526020016000815260200160008152602001600015158152602001600080191681525090565b8152602001906001900390816116435790505b50905060005b600e5481101561138b576000818152601360209081526040918290208251610100810184528154815260018201549281019290925260028101546001600160a01b0316928201929092526003820154606082015260048201546080820152600582015460a0820152600682015460ff16151560c0820152600782015460e0820152835184908490811061174757611747612ea9565b6020026020010181905250508061175d90612ebf565b90506116b2565b6012602052600090815260409020805460018201805491929161178690612ddd565b80601f01602080910402602001604051908101604052809291908181526020018280546117b290612ddd565b80156117ff5780601f106117d4576101008083540402835291602001916117ff565b820191906000526020600020905b8154815290600101906020018083116117e257829003601f168201915b505050600284015460038501546004860154600587015460069097015495966001600160a01b0390931695919450925087565b61183a611db4565b6001600160a01b03811661189f5760405162461bcd60e51b815260206004820152602660248201527f4f776e61626c653a206e6577206f776e657220697320746865207a65726f206160448201526564647265737360d01b606482015260840161081a565b6118a881611e0e565b50565b60006001600160e01b03198216632483248360e11b14806106e757506106e782612069565b6000818152600260205260409020546001600160a01b03166118a85760405162461bcd60e51b8152602060048201526018602482015277115490cdcc8c4e881a5b9d985b1a59081d1bdad95b88125160421b604482015260640161081a565b600081815260046020526040902080546001600160a01b0319166001600160a01b038416908117909155819061196482611032565b6001600160a01b03167f8c5be1e5ebec7d5bd14f71427d1e84f3dd0314c0f7b2291e5b200ac8c7c3b92560405160405180910390a45050565b6000806119a983611032565b9050806001600160a01b0316846001600160a01b031614806119f057506001600160a01b0380821660009081526005602090815260408083209388168352929052205460ff165b806108c95750836001600160a01b0316611a098461077f565b6001600160a01b031614949350505050565b826001600160a01b0316611a2e82611032565b6001600160a01b031614611a545760405162461bcd60e51b815260040161081a90612fff565b6001600160a01b038216611ab65760405162461bcd60e51b8152602060048201526024808201527f4552433732313a207472616e7366657220746f20746865207a65726f206164646044820152637265737360e01b606482015260840161081a565b611ac3838383600161208e565b826001600160a01b0316611ad682611032565b6001600160a01b031614611afc5760405162461bcd60e51b815260040161081a90612fff565b600081815260046020908152604080832080546001600160a01b03199081169091556001600160a01b0387811680865260038552838620805460001901905590871680865283862080546001019055868652600290945282852080549092168417909155905184937fddf252ad1be2c89b69c2b068fc378daa952ba7f163c4a11628f55a4df523b3ef91a4505050565b6000611b988284612e87565b9392505050565b61153082826040518060200160405280600081525061209a565b6000828152600260205260409020546001600160a01b0316611c345760405162461bcd60e51b815260206004820152602e60248201527f45524337323155524953746f726167653a2055524920736574206f66206e6f6e60448201526d32bc34b9ba32b73a103a37b5b2b760911b606482015260840161081a565b6000828152600a60205260409020611c4c8282612f3f565b506040518281527ff8e1a15aba9398e019f0b49df1a4fde98ee17ae345cb5f6b5e2c27f5033e8ce79060200160405180910390a15050565b60007f00000000000000000000000000000000000000000000000000000000000000006001600160a01b031663f17325e760405180604001604052807f04462d0d9cee5b9d0be784a050c78643f2a83d51c5afbd175ce822e77e8eb31660001b81526020016040518060c00160405280336001600160a01b03168152602001600067ffffffffffffffff1681526020016001151581526020016000801b815260200187604051602001611d3991815260200190565b604051602081830303815290604052815260200160008152508152506040518263ffffffff1660e01b8152600401611d719190613044565b6020604051808303816000875af1158015611d90573d6000803e3d6000fd5b505050506040513d601f19601f820116820180604052508101906106e79190612ed8565b600b546001600160a01b0316331461112a5760405162461bcd60e51b815260206004820181905260248201527f4f776e61626c653a2063616c6c6572206973206e6f7420746865206f776e6572604482015260640161081a565b600b80546001600160a01b038381166001600160a01b0319831681179093556040519116919082907f8be0079c531659141344cd1fd0a4f28419497f9722a3daafe3b4186f6b6457e090600090a35050565b816001600160a01b0316836001600160a01b031603611ec15760405162461bcd60e51b815260206004820152601960248201527f4552433732313a20617070726f766520746f2063616c6c657200000000000000604482015260640161081a565b6001600160a01b03838116600081815260056020908152604080832094871680845294825291829020805460ff191686151590811790915591519182527f17307eab39ab6107e8899845ad3d59bd9653f200f220920489ca2b5937696c31910160405180910390a3505050565b611f39848484611a1b565b611f45848484846120cd565b6115665760405162461bcd60e51b815260040161081a906130c7565b6060611f6c826118d0565b6000828152600a602052604081208054611f8590612ddd565b80601f0160208091040260200160405190810160405280929190818152602001828054611fb190612ddd565b8015611ffe5780601f10611fd357610100808354040283529160200191611ffe565b820191906000526020600020905b815481529060010190602001808311611fe157829003601f168201915b50505050509050600061201c60408051602081019091526000815290565b9050805160000361202e575092915050565b815115612060578082604051602001612048929190613119565b60405160208183030381529060405292505050919050565b6108c9846121cb565b60006001600160e01b0319821663780e9d6360e01b14806106e757506106e78261223e565b6115668484848461228e565b6120a483836123c2565b6120b160008484846120cd565b6108bb5760405162461bcd60e51b815260040161081a906130c7565b60006001600160a01b0384163b156121c357604051630a85bd0160e11b81526001600160a01b0385169063150b7a0290612111903390899088908890600401613148565b6020604051808303816000875af192505050801561214c575060408051601f3d908101601f1916820190925261214991810190613185565b60015b6121a9573d80801561217a576040519150601f19603f3d011682016040523d82523d6000602084013e61217f565b606091505b5080516000036121a15760405162461bcd60e51b815260040161081a906130c7565b805181602001fd5b6001600160e01b031916630a85bd0160e11b1490506108c9565b5060016108c9565b60606121d6826118d0565b60006121ed60408051602081019091526000815290565b9050600081511161220d5760405180602001604052806000815250611b98565b806122178461255b565b604051602001612228929190613119565b6040516020818303038152906040529392505050565b60006001600160e01b031982166380ac58cd60e01b148061226f57506001600160e01b03198216635b5e139f60e01b145b806106e757506301ffc9a760e01b6001600160e01b03198316146106e7565b60018111156122fd5760405162461bcd60e51b815260206004820152603560248201527f455243373231456e756d657261626c653a20636f6e7365637574697665207472604482015274185b9cd9995c9cc81b9bdd081cdd5c1c1bdc9d1959605a1b606482015260840161081a565b816001600160a01b0385166123595761235481600880546000838152600960205260408120829055600182018355919091527ff3f7a9fe364faab93b216da50a3214154f22a0a2b415b23a84c8169e8b636ee30155565b61237c565b836001600160a01b0316856001600160a01b03161461237c5761237c85826125ee565b6001600160a01b038416612398576123938161268b565b6123bb565b846001600160a01b0316846001600160a01b0316146123bb576123bb848261273a565b5050505050565b6001600160a01b0382166124185760405162461bcd60e51b815260206004820181905260248201527f4552433732313a206d696e7420746f20746865207a65726f2061646472657373604482015260640161081a565b6000818152600260205260409020546001600160a01b03161561247d5760405162461bcd60e51b815260206004820152601c60248201527f4552433732313a20746f6b656e20616c7265616479206d696e74656400000000604482015260640161081a565b61248b60008383600161208e565b6000818152600260205260409020546001600160a01b0316156124f05760405162461bcd60e51b815260206004820152601c60248201527f4552433732313a20746f6b656e20616c7265616479206d696e74656400000000604482015260640161081a565b6001600160a01b038216600081815260036020908152604080832080546001019055848352600290915280822080546001600160a01b0319168417905551839291907fddf252ad1be2c89b69c2b068fc378daa952ba7f163c4a11628f55a4df523b3ef908290a45050565b606060006125688361277e565b600101905060008167ffffffffffffffff8111156125885761258861294b565b6040519080825280601f01601f1916602001820160405280156125b2576020820181803683370190505b5090508181016020015b600019016f181899199a1a9b1b9c1cb0b131b232b360811b600a86061a8153600a85049450846125bc57509392505050565b600060016125fb84611092565b6126059190612e74565b600083815260076020526040902054909150808214612658576001600160a01b03841660009081526006602090815260408083208584528252808320548484528184208190558352600790915290208190555b5060009182526007602090815260408084208490556001600160a01b039094168352600681528383209183525290812055565b60085460009061269d90600190612e74565b600083815260096020526040812054600880549394509092849081106126c5576126c5612ea9565b9060005260206000200154905080600883815481106126e6576126e6612ea9565b600091825260208083209091019290925582815260099091526040808220849055858252812055600880548061271e5761271e6131a2565b6001900381819060005260206000200160009055905550505050565b600061274583611092565b6001600160a01b039093166000908152600660209081526040808320868452825280832085905593825260079052919091209190915550565b60008072184f03e93ff9f4daa797ed6e38ed64bf6a1f0160401b83106127bd5772184f03e93ff9f4daa797ed6e38ed64bf6a1f0160401b830492506040015b6d04ee2d6d415b85acef810000000083106127e9576d04ee2d6d415b85acef8100000000830492506020015b662386f26fc10000831061280757662386f26fc10000830492506010015b6305f5e100831061281f576305f5e100830492506008015b612710831061283357612710830492506004015b60648310612845576064830492506002015b600a83106106e75760010192915050565b6001600160e01b0319811681146118a857600080fd5b60006020828403121561287e57600080fd5b8135611b9881612856565b60005b838110156128a457818101518382015260200161288c565b50506000910152565b600081518084526128c5816020860160208601612889565b601f01601f19169290920160200192915050565b602081526000611b9860208301846128ad565b6000602082840312156128fe57600080fd5b5035919050565b80356001600160a01b038116811461291c57600080fd5b919050565b6000806040838503121561293457600080fd5b61293d83612905565b946020939093013593505050565b634e487b7160e01b600052604160045260246000fd5b600067ffffffffffffffff8084111561297c5761297c61294b565b604051601f8501601f19908116603f011681019082821181831017156129a4576129a461294b565b816040528093508581528686860111156129bd57600080fd5b858560208301376000602087830101525050509392505050565b600080600080608085870312156129ed57600080fd5b6129f685612905565b9350612a0460208601612905565b925060408501359150606085013567ffffffffffffffff811115612a2757600080fd5b8501601f81018713612a3857600080fd5b612a4787823560208401612961565b91505092959194509250565b600080600060608486031215612a6857600080fd5b612a7184612905565b9250612a7f60208501612905565b9150604084013590509250925092565b600082601f830112612aa057600080fd5b611b9883833560208501612961565b600080600060608486031215612ac457600080fd5b8335925060208401359150604084013567ffffffffffffffff811115612ae957600080fd5b612af586828701612a8f565b9150509250925092565b600060208284031215612b1157600080fd5b611b9882612905565b600081518084526020808501945080840160005b83811015612b535781516001600160a01b031687529582019590820190600101612b2e565b509495945050505050565b60006020808301818452808551808352604092508286019150828160051b87010184880160005b83811015612c1f57603f1989840301855281516101008151855288820151818a870152612bb4828701826128ad565b838a01516001600160a01b0316878b0152606080850151908801526080808501519088015260a0848101519088015260c0808501519088015260e093840151878203948801949094529150612c0b90508183612b1a565b968901969450505090860190600101612b85565b509098975050505050505050565b60008060408385031215612c4057600080fd5b612c4983612905565b915060208301358015158114612c5e57600080fd5b809150509250929050565b600080600080600060a08688031215612c8157600080fd5b853567ffffffffffffffff811115612c9857600080fd5b612ca488828901612a8f565b9860208801359850604088013597606081013597506080013595509350505050565b602080825282518282018190526000919060409081850190868401855b82811015612d51578151805185528681015187860152858101516001600160a01b031686860152606080820151908601526080808201519086015260a0808201519086015260c08082015115159086015260e090810151908501526101009093019290850190600101612ce3565b5091979650505050505050565b87815260e060208201526000612d7760e08301896128ad565b6001600160a01b03979097166040830152506060810194909452608084019290925260a083015260c09091015292915050565b60008060408385031215612dbd57600080fd5b612dc683612905565b9150612dd460208401612905565b90509250929050565b600181811c90821680612df157607f821691505b60208210810361138b57634e487b7160e01b600052602260045260246000fd5b6020808252602d908201527f4552433732313a2063616c6c6572206973206e6f7420746f6b656e206f776e6560408201526c1c881bdc88185c1c1c9bdd9959609a1b606082015260800190565b634e487b7160e01b600052601160045260246000fd5b818103818111156106e7576106e7612e5e565b600082612ea457634e487b7160e01b600052601260045260246000fd5b500490565b634e487b7160e01b600052603260045260246000fd5b600060018201612ed157612ed1612e5e565b5060010190565b600060208284031215612eea57600080fd5b5051919050565b601f8211156108bb57600081815260208120601f850160051c81016020861015612f185750805b601f850160051c820191505b81811015612f3757828155600101612f24565b505050505050565b815167ffffffffffffffff811115612f5957612f5961294b565b612f6d81612f678454612ddd565b84612ef1565b602080601f831160018114612fa25760008415612f8a5750858301515b600019600386901b1c1916600185901b178555612f37565b600085815260208120601f198616915b82811015612fd157888601518255948401946001909101908401612fb2565b5085821015612fef5787850151600019600388901b60f8161c191681555b5050505050600190811b01905550565b60208082526025908201527f4552433732313a207472616e736665722066726f6d20696e636f72726563742060408201526437bbb732b960d91b606082015260800190565b60208152815160208201526000602083015160408084015260018060a01b03815116606084015267ffffffffffffffff60208201511660808401526040810151151560a0840152606081015160c0840152608081015160c060e08501526130af6101208501826128ad565b905060a0820151610100850152809250505092915050565b60208082526032908201527f4552433732313a207472616e7366657220746f206e6f6e20455243373231526560408201527131b2b4bb32b91034b6b83632b6b2b73a32b960711b606082015260800190565b6000835161312b818460208801612889565b83519083019061313f818360208801612889565b01949350505050565b6001600160a01b038581168252841660208201526040810183905260806060820181905260009061317b908301846128ad565b9695505050505050565b60006020828403121561319757600080fd5b8151611b9881612856565b634e487b7160e01b600052603160045260246000fdfea26469706673582212207f610d5e219cf7ff3e6b88987dd5f35a0349057a04456d6a0764f704d346d3d364736f6c6343000811003350726f6f66206f6620576f726b6f75742050726f746f636f6c204f7074696d69736d",
    "linkReferences": {}
  },
  "methodIdentifiers": {
    "approve(address,uint256)": "095ea7b3",
    "balanceOf(address)": "70a08231",
    "createQuest(string,uint256,uint256,uint256,uint256)": "d3f20746",
    "failQuest(uint256)": "401ce822",
    "getApproved(uint256)": "081812fc",
    "getAttestationUidFromQuestChallenge(uint256)": "3584f33b",
    "getQuestChallenges()": "d9150fe4",
    "getQuests()": "7adcad8b",
    "isApprovedForAll(address,address)": "e985e9c5",
    "minPowTokensEasyDifficulty()": "e28835e3",
    "minPowTokensHardDifficulty()": "493ad1a1",
    "minPowTokensMediumDifficulty()": "5b7292a2",
    "name()": "06fdde03",
    "numOfQuestChallenges()": "dce6846f",
    "onERC721Received(address,address,uint256,bytes)": "150b7a02",
    "owner()": "8da5cb5b",
    "ownerOf(uint256)": "6352211e",
    "questChallenges(uint256)": "759e6a6f",
    "quests(uint256)": "e085f980",
    "renounceOwnership()": "715018a6",
    "safeTransferFrom(address,address,uint256)": "42842e0e",
    "safeTransferFrom(address,address,uint256,bytes)": "b88d4fde",
    "setApprovalForAll(address,bool)": "a22cb465",
    "startQuest(uint256)": "9e563544",
    "submitQuest(uint256,uint256,string)": "6088aea2",
    "supportsInterface(bytes4)": "01ffc9a7",
    "symbol()": "95d89b41",
    "tokenByIndex(uint256)": "4f6ccce7",
    "tokenOfOwnerByIndex(address,uint256)": "2f745c59",
    "tokenURI(uint256)": "c87b56dd",
    "totalSupply()": "18160ddd",
    "transferFrom(address,address,uint256)": "23b872dd",
    "transferOwnership(address)": "f2fde38b"
  },
  "id": 30
}