{
  "abi": [
    {
      "inputs": [
        {
          "internalType": "contract IEAS",
          "name": "eas",
          "type": "address"
        }
      ],
      "stateMutability": "nonpayable",
      "type": "constructor"
    },
    {
      "inputs": [],
      "name": "InvalidEAS",
      "type": "error"
    },
    {
      "anonymous": false,
      "inputs": [
        {
          "indexed": true,
          "internalType": "address",
          "name": "owner",
          "type": "address"
        },
        {
          "indexed": true,
          "internalType": "address",
          "name": "approved",
          "type": "address"
        },
        {
          "indexed": true,
          "internalType": "uint256",
          "name": "tokenId",
          "type": "uint256"
        }
      ],
      "name": "Approval",
      "type": "event"
    },
    {
      "anonymous": false,
      "inputs": [
        {
          "indexed": true,
          "internalType": "address",
          "name": "owner",
          "type": "address"
        },
        {
          "indexed": true,
          "internalType": "address",
          "name": "operator",
          "type": "address"
        },
        {
          "indexed": false,
          "internalType": "bool",
          "name": "approved",
          "type": "bool"
        }
      ],
      "name": "ApprovalForAll",
      "type": "event"
    },
    {
      "anonymous": false,
      "inputs": [
        {
          "indexed": false,
          "internalType": "uint256",
          "name": "_fromTokenId",
          "type": "uint256"
        },
        {
          "indexed": false,
          "internalType": "uint256",
          "name": "_toTokenId",
          "type": "uint256"
        }
      ],
      "name": "BatchMetadataUpdate",
      "type": "event"
    },
    {
      "anonymous": false,
      "inputs": [
        {
          "indexed": false,
          "internalType": "uint256",
          "name": "_tokenId",
          "type": "uint256"
        }
      ],
      "name": "MetadataUpdate",
      "type": "event"
    },
    {
      "anonymous": false,
      "inputs": [
        {
          "indexed": true,
          "internalType": "address",
          "name": "previousOwner",
          "type": "address"
        },
        {
          "indexed": true,
          "internalType": "address",
          "name": "newOwner",
          "type": "address"
        }
      ],
      "name": "OwnershipTransferred",
      "type": "event"
    },
    {
      "anonymous": false,
      "inputs": [
        {
          "indexed": true,
          "internalType": "address",
          "name": "from",
          "type": "address"
        },
        {
          "indexed": true,
          "internalType": "address",
          "name": "to",
          "type": "address"
        },
        {
          "indexed": true,
          "internalType": "uint256",
          "name": "tokenId",
          "type": "uint256"
        }
      ],
      "name": "Transfer",
      "type": "event"
    },
    {
      "inputs": [
        {
          "internalType": "address",
          "name": "to",
          "type": "address"
        },
        {
          "internalType": "uint256",
          "name": "tokenId",
          "type": "uint256"
        }
      ],
      "name": "approve",
      "outputs": [],
      "stateMutability": "nonpayable",
      "type": "function"
    },
    {
      "inputs": [
        {
          "internalType": "address",
          "name": "owner",
          "type": "address"
        }
      ],
      "name": "balanceOf",
      "outputs": [
        {
          "internalType": "uint256",
          "name": "",
          "type": "uint256"
        }
      ],
      "stateMutability": "view",
      "type": "function"
    },
    {
      "inputs": [
        {
          "internalType": "string",
          "name": "_name",
          "type": "string"
        },
        {
          "internalType": "uint256",
          "name": "_minWorkoutDuration",
          "type": "uint256"
        },
        {
          "internalType": "uint256",
          "name": "_minStakeAmount",
          "type": "uint256"
        },
        {
          "internalType": "uint256",
          "name": "_questDifficulty",
          "type": "uint256"
        },
        {
          "internalType": "uint256",
          "name": "_maxQuestDuration",
          "type": "uint256"
        }
      ],
      "name": "createQuest",
      "outputs": [],
      "stateMutability": "nonpayable",
      "type": "function"
    },
    {
      "inputs": [
        {
          "internalType": "uint256",
          "name": "_challengeId",
          "type": "uint256"
        }
      ],
      "name": "failQuest",
      "outputs": [],
      "stateMutability": "payable",
      "type": "function"
    },
    {
      "inputs": [
        {
          "internalType": "uint256",
          "name": "tokenId",
          "type": "uint256"
        }
      ],
      "name": "getApproved",
      "outputs": [
        {
          "internalType": "address",
          "name": "",
          "type": "address"
        }
      ],
      "stateMutability": "view",
      "type": "function"
    },
    {
      "inputs": [],
      "name": "getQuestChallenges",
      "outputs": [
        {
          "components": [
            {
              "internalType": "uint256",
              "name": "challengeId",
              "type": "uint256"
            },
            {
              "internalType": "uint256",
              "name": "questTokenId",
              "type": "uint256"
            },
            {
              "internalType": "address",
              "name": "submitter",
              "type": "address"
            },
            {
              "internalType": "uint256",
              "name": "workoutDuration",
              "type": "uint256"
            },
            {
              "internalType": "uint256",
              "name": "stakeAmount",
              "type": "uint256"
            },
            {
              "internalType": "uint256",
              "name": "startTime",
              "type": "uint256"
            },
            {
              "internalType": "bool",
              "name": "completed",
              "type": "bool"
            },
            {
              "internalType": "uint256",
              "name": "attestationUid",
              "type": "uint256"
            }
          ],
          "internalType": "struct OptimismQuestManager.QuestChallenges[]",
          "name": "",
          "type": "tuple[]"
        }
      ],
      "stateMutability": "view",
      "type": "function"
    },
    {
      "inputs": [],
      "name": "getQuests",
      "outputs": [
        {
          "components": [
            {
              "internalType": "uint256",
              "name": "tokenId",
              "type": "uint256"
            },
            {
              "internalType": "string",
              "name": "name",
              "type": "string"
            },
            {
              "internalType": "address",
              "name": "creator",
              "type": "address"
            },
            {
              "internalType": "uint256",
              "name": "minStakeAmount",
              "type": "uint256"
            },
            {
              "internalType": "uint256",
              "name": "minWorkoutDuration",
              "type": "uint256"
            },
            {
              "internalType": "uint256",
              "name": "questDifficulty",
              "type": "uint256"
            },
            {
              "internalType": "uint256",
              "name": "maxQuestDuration",
              "type": "uint256"
            },
            {
              "internalType": "address[]",
              "name": "completedUsers",
              "type": "address[]"
            }
          ],
          "internalType": "struct OptimismQuestManager.Quest[]",
          "name": "",
          "type": "tuple[]"
        }
      ],
      "stateMutability": "view",
      "type": "function"
    },
    {
      "inputs": [
        {
          "internalType": "address",
          "name": "owner",
          "type": "address"
        },
        {
          "internalType": "address",
          "name": "operator",
          "type": "address"
        }
      ],
      "name": "isApprovedForAll",
      "outputs": [
        {
          "internalType": "bool",
          "name": "",
          "type": "bool"
        }
      ],
      "stateMutability": "view",
      "type": "function"
    },
    {
      "inputs": [],
      "name": "minPowTokensEasyDifficulty",
      "outputs": [
        {
          "internalType": "uint256",
          "name": "",
          "type": "uint256"
        }
      ],
      "stateMutability": "view",
      "type": "function"
    },
    {
      "inputs": [],
      "name": "minPowTokensHardDifficulty",
      "outputs": [
        {
          "internalType": "uint256",
          "name": "",
          "type": "uint256"
        }
      ],
      "stateMutability": "view",
      "type": "function"
    },
    {
      "inputs": [],
      "name": "minPowTokensMediumDifficulty",
      "outputs": [
        {
          "internalType": "uint256",
          "name": "",
          "type": "uint256"
        }
      ],
      "stateMutability": "view",
      "type": "function"
    },
    {
      "inputs": [],
      "name": "name",
      "outputs": [
        {
          "internalType": "string",
          "name": "",
          "type": "string"
        }
      ],
      "stateMutability": "view",
      "type": "function"
    },
    {
      "inputs": [],
      "name": "numOfQuestChallenges",
      "outputs": [
        {
          "internalType": "uint256",
          "name": "",
          "type": "uint256"
        }
      ],
      "stateMutability": "view",
      "type": "function"
    },
    {
      "inputs": [
        {
          "internalType": "address",
          "name": "",
          "type": "address"
        },
        {
          "internalType": "address",
          "name": "",
          "type": "address"
        },
        {
          "internalType": "uint256",
          "name": "",
          "type": "uint256"
        },
        {
          "internalType": "bytes",
          "name": "",
          "type": "bytes"
        }
      ],
      "name": "onERC721Received",
      "outputs": [
        {
          "internalType": "bytes4",
          "name": "",
          "type": "bytes4"
        }
      ],
      "stateMutability": "nonpayable",
      "type": "function"
    },
    {
      "inputs": [],
      "name": "owner",
      "outputs": [
        {
          "internalType": "address",
          "name": "",
          "type": "address"
        }
      ],
      "stateMutability": "view",
      "type": "function"
    },
    {
      "inputs": [
        {
          "internalType": "uint256",
          "name": "tokenId",
          "type": "uint256"
        }
      ],
      "name": "ownerOf",
      "outputs": [
        {
          "internalType": "address",
          "name": "",
          "type": "address"
        }
      ],
      "stateMutability": "view",
      "type": "function"
    },
    {
      "inputs": [
        {
          "internalType": "uint256",
          "name": "",
          "type": "uint256"
        }
      ],
      "name": "questChallenges",
      "outputs": [
        {
          "internalType": "uint256",
          "name": "challengeId",
          "type": "uint256"
        },
        {
          "internalType": "uint256",
          "name": "questTokenId",
          "type": "uint256"
        },
        {
          "internalType": "address",
          "name": "submitter",
          "type": "address"
        },
        {
          "internalType": "uint256",
          "name": "workoutDuration",
          "type": "uint256"
        },
        {
          "internalType": "uint256",
          "name": "stakeAmount",
          "type": "uint256"
        },
        {
          "internalType": "uint256",
          "name": "startTime",
          "type": "uint256"
        },
        {
          "internalType": "bool",
          "name": "completed",
          "type": "bool"
        },
        {
          "internalType": "uint256",
          "name": "attestationUid",
          "type": "uint256"
        }
      ],
      "stateMutability": "view",
      "type": "function"
    },
    {
      "inputs": [
        {
          "internalType": "uint256",
          "name": "",
          "type": "uint256"
        }
      ],
      "name": "quests",
      "outputs": [
        {
          "internalType": "uint256",
          "name": "tokenId",
          "type": "uint256"
        },
        {
          "internalType": "string",
          "name": "name",
          "type": "string"
        },
        {
          "internalType": "address",
          "name": "creator",
          "type": "address"
        },
        {
          "internalType": "uint256",
          "name": "minStakeAmount",
          "type": "uint256"
        },
        {
          "internalType": "uint256",
          "name": "minWorkoutDuration",
          "type": "uint256"
        },
        {
          "internalType": "uint256",
          "name": "questDifficulty",
          "type": "uint256"
        },
        {
          "internalType": "uint256",
          "name": "maxQuestDuration",
          "type": "uint256"
        }
      ],
      "stateMutability": "view",
      "type": "function"
    },
    {
      "inputs": [],
      "name": "renounceOwnership",
      "outputs": [],
      "stateMutability": "nonpayable",
      "type": "function"
    },
    {
      "inputs": [
        {
          "internalType": "address",
          "name": "from",
          "type": "address"
        },
        {
          "internalType": "address",
          "name": "to",
          "type": "address"
        },
        {
          "internalType": "uint256",
          "name": "tokenId",
          "type": "uint256"
        }
      ],
      "name": "safeTransferFrom",
      "outputs": [],
      "stateMutability": "nonpayable",
      "type": "function"
    },
    {
      "inputs": [
        {
          "internalType": "address",
          "name": "from",
          "type": "address"
        },
        {
          "internalType": "address",
          "name": "to",
          "type": "address"
        },
        {
          "internalType": "uint256",
          "name": "tokenId",
          "type": "uint256"
        },
        {
          "internalType": "bytes",
          "name": "data",
          "type": "bytes"
        }
      ],
      "name": "safeTransferFrom",
      "outputs": [],
      "stateMutability": "nonpayable",
      "type": "function"
    },
    {
      "inputs": [
        {
          "internalType": "address",
          "name": "operator",
          "type": "address"
        },
        {
          "internalType": "bool",
          "name": "approved",
          "type": "bool"
        }
      ],
      "name": "setApprovalForAll",
      "outputs": [],
      "stateMutability": "nonpayable",
      "type": "function"
    },
    {
      "inputs": [
        {
          "internalType": "uint256",
          "name": "_questTokenId",
          "type": "uint256"
        }
      ],
      "name": "startQuest",
      "outputs": [],
      "stateMutability": "payable",
      "type": "function"
    },
    {
      "inputs": [
        {
          "internalType": "uint256",
          "name": "_challengeId",
          "type": "uint256"
        },
        {
          "internalType": "uint256",
          "name": "_activityDuration",
          "type": "uint256"
        },
        {
          "internalType": "string",
          "name": "_metadataURI",
          "type": "string"
        }
      ],
      "name": "submitQuest",
      "outputs": [],
      "stateMutability": "payable",
      "type": "function"
    },
    {
      "inputs": [
        {
          "internalType": "bytes4",
          "name": "interfaceId",
          "type": "bytes4"
        }
      ],
      "name": "supportsInterface",
      "outputs": [
        {
          "internalType": "bool",
          "name": "",
          "type": "bool"
        }
      ],
      "stateMutability": "view",
      "type": "function"
    },
    {
      "inputs": [],
      "name": "symbol",
      "outputs": [
        {
          "internalType": "string",
          "name": "",
          "type": "string"
        }
      ],
      "stateMutability": "view",
      "type": "function"
    },
    {
      "inputs": [
        {
          "internalType": "uint256",
          "name": "index",
          "type": "uint256"
        }
      ],
      "name": "tokenByIndex",
      "outputs": [
        {
          "internalType": "uint256",
          "name": "",
          "type": "uint256"
        }
      ],
      "stateMutability": "view",
      "type": "function"
    },
    {
      "inputs": [
        {
          "internalType": "address",
          "name": "owner",
          "type": "address"
        },
        {
          "internalType": "uint256",
          "name": "index",
          "type": "uint256"
        }
      ],
      "name": "tokenOfOwnerByIndex",
      "outputs": [
        {
          "internalType": "uint256",
          "name": "",
          "type": "uint256"
        }
      ],
      "stateMutability": "view",
      "type": "function"
    },
    {
      "inputs": [
        {
          "internalType": "uint256",
          "name": "tokenId",
          "type": "uint256"
        }
      ],
      "name": "tokenURI",
      "outputs": [
        {
          "internalType": "string",
          "name": "",
          "type": "string"
        }
      ],
      "stateMutability": "view",
      "type": "function"
    },
    {
      "inputs": [],
      "name": "totalSupply",
      "outputs": [
        {
          "internalType": "uint256",
          "name": "",
          "type": "uint256"
        }
      ],
      "stateMutability": "view",
      "type": "function"
    },
    {
      "inputs": [
        {
          "internalType": "address",
          "name": "from",
          "type": "address"
        },
        {
          "internalType": "address",
          "name": "to",
          "type": "address"
        },
        {
          "internalType": "uint256",
          "name": "tokenId",
          "type": "uint256"
        }
      ],
      "name": "transferFrom",
      "outputs": [],
      "stateMutability": "nonpayable",
      "type": "function"
    },
    {
      "inputs": [
        {
          "internalType": "address",
          "name": "newOwner",
          "type": "address"
        }
      ],
      "name": "transferOwnership",
      "outputs": [],
      "stateMutability": "nonpayable",
      "type": "function"
    }
  ],
  "bytecode": {
    "object": "0x60a06040526000600f556103e86010556107d06011553480156200002257600080fd5b50604051620034fc380380620034fc83398101604081905262000045916200016a565b604051806060016040528060228152602001620034da602291396040805180820190915260048152630504f57560e41b6020820152600062000088838262000241565b50600162000097828262000241565b505050620000b4620000ae6200011460201b60201c565b62000118565b600c80546001600160a01b031916731bb3a8dcaefecd61c9e51e29c3aa38f705f04edc1790556001600160a01b03811662000102576040516341bc07ff60e11b815260040160405180910390fd5b6001600160a01b03166080526200030d565b3390565b600b80546001600160a01b038381166001600160a01b0319831681179093556040519116919082907f8be0079c531659141344cd1fd0a4f28419497f9722a3daafe3b4186f6b6457e090600090a35050565b6000602082840312156200017d57600080fd5b81516001600160a01b03811681146200019557600080fd5b9392505050565b634e487b7160e01b600052604160045260246000fd5b600181811c90821680620001c757607f821691505b602082108103620001e857634e487b7160e01b600052602260045260246000fd5b50919050565b601f8211156200023c57600081815260208120601f850160051c81016020861015620002175750805b601f850160051c820191505b81811015620002385782815560010162000223565b5050505b505050565b81516001600160401b038111156200025d576200025d6200019c565b62000275816200026e8454620001b2565b84620001ee565b602080601f831160018114620002ad5760008415620002945750858301515b600019600386901b1c1916600185901b17855562000238565b600085815260208120601f198616915b82811015620002de57888601518255948401946001909101908401620002bd565b5085821015620002fd5787850151600019600388901b60f8161c191681555b5050505050600190811b01905550565b6080516131b1620003296000396000611c4a01526131b16000f3fe6080604052600436106101e35760003560e01c8063715018a611610102578063c87b56dd11610095578063e085f98011610064578063e085f980146105ef578063e28835e314610622578063e985e9c514610638578063f2fde38b1461068157600080fd5b8063c87b56dd14610577578063d3f2074614610597578063d9150fe4146105b7578063dce6846f146105d957600080fd5b806395d89b41116100d157806395d89b411461050f5780639e56354414610524578063a22cb46514610537578063b88d4fde1461055757600080fd5b8063715018a614610403578063759e6a6f146104185780637adcad8b146104cf5780638da5cb5b146104f157600080fd5b8063401ce8221161017a5780635b7292a2116101495780635b7292a21461039a5780636088aea2146103b05780636352211e146103c357806370a08231146103e357600080fd5b8063401ce8221461033157806342842e0e14610344578063493ad1a1146103645780634f6ccce71461037a57600080fd5b8063150b7a02116101b6578063150b7a021461029957806318160ddd146102d257806323b872dd146102f15780632f745c591461031157600080fd5b806301ffc9a7146101e857806306fdde031461021d578063081812fc1461023f578063095ea7b314610277575b600080fd5b3480156101f457600080fd5b5061020861020336600461282f565b6106a1565b60405190151581526020015b60405180910390f35b34801561022957600080fd5b506102326106b2565b604051610214919061289c565b34801561024b57600080fd5b5061025f61025a3660046128af565b610744565b6040516001600160a01b039091168152602001610214565b34801561028357600080fd5b506102976102923660046128e4565b61076b565b005b3480156102a557600080fd5b506102b96102b436600461299a565b610885565b6040516001600160e01b03199091168152602001610214565b3480156102de57600080fd5b506008545b604051908152602001610214565b3480156102fd57600080fd5b5061029761030c366004612a16565b610896565b34801561031d57600080fd5b506102e361032c3660046128e4565b6108c7565b61029761033f3660046128af565b61095d565b34801561035057600080fd5b5061029761035f366004612a16565b610bf8565b34801561037057600080fd5b506102e360115481565b34801561038657600080fd5b506102e36103953660046128af565b610c13565b3480156103a657600080fd5b506102e360105481565b6102976103be366004612a72565b610ca6565b3480156103cf57600080fd5b5061025f6103de3660046128af565b610ff7565b3480156103ef57600080fd5b506102e36103fe366004612ac2565b611057565b34801561040f57600080fd5b506102976110dd565b34801561042457600080fd5b506104866104333660046128af565b60136020526000908152604090208054600182015460028301546003840154600485015460058601546006870154600790970154959694956001600160a01b039094169492939192909160ff9091169088565b6040805198895260208901979097526001600160a01b03909516958701959095526060860192909252608085015260a084015290151560c083015260e082015261010001610214565b3480156104db57600080fd5b506104e46110f1565b6040516102149190612b21565b3480156104fd57600080fd5b50600b546001600160a01b031661025f565b34801561051b57600080fd5b50610232611356565b6102976105323660046128af565b611365565b34801561054357600080fd5b50610297610552366004612bf0565b6114ea565b34801561056357600080fd5b5061029761057236600461299a565b6114f9565b34801561058357600080fd5b506102326105923660046128af565b611531565b3480156105a357600080fd5b506102976105b2366004612c2c565b61153c565b3480156105c357600080fd5b506105cc6115cb565b6040516102149190612c89565b3480156105e557600080fd5b506102e3600e5481565b3480156105fb57600080fd5b5061060f61060a3660046128af565b611726565b6040516102149796959493929190612d21565b34801561062e57600080fd5b506102e3600f5481565b34801561064457600080fd5b50610208610653366004612d6d565b6001600160a01b03918216600090815260056020908152604080832093909416825291909152205460ff1690565b34801561068d57600080fd5b5061029761069c366004612ac2565b6117f4565b60006106ac8261186d565b92915050565b6060600080546106c190612da0565b80601f01602080910402602001604051908101604052809291908181526020018280546106ed90612da0565b801561073a5780601f1061070f5761010080835404028352916020019161073a565b820191906000526020600020905b81548152906001019060200180831161071d57829003601f168201915b5050505050905090565b600061074f82611892565b506000908152600460205260409020546001600160a01b031690565b600061077682610ff7565b9050806001600160a01b0316836001600160a01b0316036107e85760405162461bcd60e51b815260206004820152602160248201527f4552433732313a20617070726f76616c20746f2063757272656e74206f776e656044820152603960f91b60648201526084015b60405180910390fd5b336001600160a01b038216148061080457506108048133610653565b6108765760405162461bcd60e51b815260206004820152603d60248201527f4552433732313a20617070726f76652063616c6c6572206973206e6f7420746f60448201527f6b656e206f776e6572206f7220617070726f76656420666f7220616c6c00000060648201526084016107df565b61088083836118f1565b505050565b630a85bd0160e11b5b949350505050565b6108a0338261195f565b6108bc5760405162461bcd60e51b81526004016107df90612dd4565b6108808383836119dd565b60006108d283611057565b82106109345760405162461bcd60e51b815260206004820152602b60248201527f455243373231456e756d657261626c653a206f776e657220696e646578206f7560448201526a74206f6620626f756e647360a81b60648201526084016107df565b506001600160a01b03919091166000908152600660209081526040808320938352929052205490565b6000818152601360209081526040808320600181015484526012909252909120600682015460ff16156109d25760405162461bcd60e51b815260206004820152601860248201527f517565737420686173206265656e20636f6d706c65746564000000000000000060448201526064016107df565b600681015460058301546109e69042612e37565b1015610a345760405162461bcd60e51b815260206004820152601c60248201527f5175657374206368616c6c656e6765206e6f7420796574206f7665720000000060448201526064016107df565b60028101546001600160a01b03163314610aad5760405162461bcd60e51b815260206004820152603460248201527f4f6e6c79207468652063726561746f72206f6620746865207175657374206361604482015273371031b0b636103a3434b990333ab731ba34b7b760611b60648201526084016107df565b336001600160a01b03166108fc60028460040154610acb9190612e4a565b6040518115909202916000818181858888f19350505050158015610af3573d6000803e3d6000fd5b5060078101546004830154600091610b1791610b1190600290612e4a565b90611b4e565b905060005b6007830154811015610b8e57826007018181548110610b3d57610b3d612e6c565b60009182526020822001546040516001600160a01b039091169184156108fc02918591818181858888f19350505050158015610b7d573d6000803e3d6000fd5b50610b8781612e82565b9050610b1c565b50600c54600284015460405163b6fd16e160e01b81526001600160a01b03918216600482015291169063b6fd16e190602401600060405180830381600087803b158015610bda57600080fd5b505af1158015610bee573d6000803e3d6000fd5b5050505050505050565b610880838383604051806020016040528060008152506114f9565b6000610c1e60085490565b8210610c815760405162461bcd60e51b815260206004820152602c60248201527f455243373231456e756d657261626c653a20676c6f62616c20696e646578206f60448201526b7574206f6620626f756e647360a01b60648201526084016107df565b60088281548110610c9457610c94612e6c565b90600052602060002001549050919050565b600083815260136020908152604080832060018101548452601290925290912060028201546001600160a01b03163314610d385760405162461bcd60e51b815260206004820152602d60248201527f596f75206d7573742062652074686973207175657374206368616c6c656e676560448201526c13b99031b430b63632b733b2b960991b60648201526084016107df565b60068101546005830154610d4c9042612e37565b1115610d935760405162461bcd60e51b815260206004820152601660248201527554696d6520686173207061737365642c20736f72727960501b60448201526064016107df565b600682015460ff1615610dff5760405162461bcd60e51b815260206004820152602e60248201527f54686973207175657374206368616c6c656e676520686173206265656e20636f60448201526d6d706c657465642c20736f72727960901b60648201526084016107df565b8060040154841015610e5d5760405162461bcd60e51b815260206004820152602160248201527f4163746976697479206475726174696f6e206e6f74206c6f6e6720656e6f75676044820152600d60fb1b60648201526084016107df565b6003820184815560068301805460ff19166001908117909155600783018054918201815560009081526020812090910180546001600160a01b03191633179055600c5460048086015493546005860154604051637be3c4c760e01b8152928301959095526024820152604481019390935290916001600160a01b0390911690637be3c4c790606401602060405180830381865afa158015610f02573d6000803e3d6000fd5b505050506040513d601f19601f82011682018060405250810190610f269190612e9b565b9050610f36338360000154611b61565b8154610f429085611b7b565b6004830154604051339180156108fc02916000818181858888f19350505050158015610f72573d6000803e3d6000fd5b50600c54604051630ff7b2c560e11b8152336004820152602481018390526001600160a01b0390911690631fef658a90604401600060405180830381600087803b158015610fbf57600080fd5b505af1158015610fd3573d6000803e3d6000fd5b505050506000610fe68460010154611c46565b600790940193909355505050505050565b6000818152600260205260408120546001600160a01b0316806106ac5760405162461bcd60e51b8152602060048201526018602482015277115490cdcc8c4e881a5b9d985b1a59081d1bdad95b88125160421b60448201526064016107df565b60006001600160a01b0382166110c15760405162461bcd60e51b815260206004820152602960248201527f4552433732313a2061646472657373207a65726f206973206e6f7420612076616044820152683634b21037bbb732b960b91b60648201526084016107df565b506001600160a01b031660009081526003602052604090205490565b6110e5611d77565b6110ef6000611dd1565b565b606060006110fe600d5490565b67ffffffffffffffff8111156111165761111661290e565b60405190808252806020026020018201604052801561119857816020015b611185604051806101000160405280600081526020016060815260200160006001600160a01b0316815260200160008152602001600081526020016000815260200160008152602001606081525090565b8152602001906001900390816111345790505b50905060005b600d548110156113505760006012600083815260200190815260200160002090508060405180610100016040529081600082015481526020016001820180546111e690612da0565b80601f016020809104026020016040519081016040528092919081815260200182805461121290612da0565b801561125f5780601f106112345761010080835404028352916020019161125f565b820191906000526020600020905b81548152906001019060200180831161124257829003601f168201915b505050505081526020016002820160009054906101000a90046001600160a01b03166001600160a01b03166001600160a01b03168152602001600382015481526020016004820154815260200160058201548152602001600682015481526020016007820180548060200260200160405190810160405280929190818152602001828054801561131857602002820191906000526020600020905b81546001600160a01b031681526001909101906020018083116112fa575b50505050508152505083838151811061133357611333612e6c565b6020026020010181905250508061134990612e82565b905061119e565b50919050565b6060600180546106c190612da0565b600081815260126020526040902060038101543410156113df5760405162461bcd60e51b815260206004820152602f60248201527f596f75206d757374207374616b6520656e6f75676820657468657220746f206260448201526e1959da5b881d1a1a5cc81c5d595cdd608a1b60648201526084016107df565b600c54604051632999712960e21b81523360048201526000916001600160a01b03169063a665c4a490602401602060405180830381865afa158015611428573d6000803e3d6000fd5b505050506040513d601f19601f8201168201806040525081019061144c9190612e9b565b9050816005015460020361146e5760105481101561146957600080fd5b611489565b81600501546003036114895760115481101561148957600080fd5b600e80546000818152601360205260408120918255600182018690556002820180546001600160a01b0319163317905534600483015542600583015560068201805460ff1916905582549192906114df83612e82565b919050555050505050565b6114f5338383611e23565b5050565b611503338361195f565b61151f5760405162461bcd60e51b81526004016107df90612dd4565b61152b84848484611ef1565b50505050565b60606106ac82611f24565b816001148061154b5750816002145b806115565750816003145b61155f57600080fd5b600061156a600d5490565b905061157a600d80546001019055565b6000818152601260205260409020818155600181016115998882612f02565b506002810180546001600160a01b03191633179055600381019490945550600483019390935560058201556006015550565b60606000600e5467ffffffffffffffff8111156115ea576115ea61290e565b60405190808252806020026020018201604052801561166e57816020015b61165b604051806101000160405280600081526020016000815260200160006001600160a01b03168152602001600081526020016000815260200160008152602001600015158152602001600081525090565b8152602001906001900390816116085790505b50905060005b600e54811015611350576000818152601360209081526040918290208251610100810184528154815260018201549281019290925260028101546001600160a01b0316928201929092526003820154606082015260048201546080820152600582015460a0820152600682015460ff16151560c0820152600782015460e0820152835184908490811061170957611709612e6c565b6020026020010181905250508061171f90612e82565b9050611674565b6012602052600090815260409020805460018201805491929161174890612da0565b80601f016020809104026020016040519081016040528092919081815260200182805461177490612da0565b80156117c15780601f10611796576101008083540402835291602001916117c1565b820191906000526020600020905b8154815290600101906020018083116117a457829003601f168201915b505050600284015460038501546004860154600587015460069097015495966001600160a01b0390931695919450925087565b6117fc611d77565b6001600160a01b0381166118615760405162461bcd60e51b815260206004820152602660248201527f4f776e61626c653a206e6577206f776e657220697320746865207a65726f206160448201526564647265737360d01b60648201526084016107df565b61186a81611dd1565b50565b60006001600160e01b03198216632483248360e11b14806106ac57506106ac8261202c565b6000818152600260205260409020546001600160a01b031661186a5760405162461bcd60e51b8152602060048201526018602482015277115490cdcc8c4e881a5b9d985b1a59081d1bdad95b88125160421b60448201526064016107df565b600081815260046020526040902080546001600160a01b0319166001600160a01b038416908117909155819061192682610ff7565b6001600160a01b03167f8c5be1e5ebec7d5bd14f71427d1e84f3dd0314c0f7b2291e5b200ac8c7c3b92560405160405180910390a45050565b60008061196b83610ff7565b9050806001600160a01b0316846001600160a01b031614806119b257506001600160a01b0380821660009081526005602090815260408083209388168352929052205460ff165b8061088e5750836001600160a01b03166119cb84610744565b6001600160a01b031614949350505050565b826001600160a01b03166119f082610ff7565b6001600160a01b031614611a165760405162461bcd60e51b81526004016107df90612fc2565b6001600160a01b038216611a785760405162461bcd60e51b8152602060048201526024808201527f4552433732313a207472616e7366657220746f20746865207a65726f206164646044820152637265737360e01b60648201526084016107df565b611a858383836001612051565b826001600160a01b0316611a9882610ff7565b6001600160a01b031614611abe5760405162461bcd60e51b81526004016107df90612fc2565b600081815260046020908152604080832080546001600160a01b03199081169091556001600160a01b0387811680865260038552838620805460001901905590871680865283862080546001019055868652600290945282852080549092168417909155905184937fddf252ad1be2c89b69c2b068fc378daa952ba7f163c4a11628f55a4df523b3ef91a4505050565b6000611b5a8284612e4a565b9392505050565b6114f582826040518060200160405280600081525061205d565b6000828152600260205260409020546001600160a01b0316611bf65760405162461bcd60e51b815260206004820152602e60248201527f45524337323155524953746f726167653a2055524920736574206f66206e6f6e60448201526d32bc34b9ba32b73a103a37b5b2b760911b60648201526084016107df565b6000828152600a60205260409020611c0e8282612f02565b506040518281527ff8e1a15aba9398e019f0b49df1a4fde98ee17ae345cb5f6b5e2c27f5033e8ce79060200160405180910390a15050565b60007f00000000000000000000000000000000000000000000000000000000000000006001600160a01b031663f17325e760405180604001604052807f199b7ef58c2ed552686cbfef8a224dd67db53a8b50e8298d27c475be01e4f67860001b81526020016040518060c0016040528060006001600160a01b03168152602001600067ffffffffffffffff1681526020016001151581526020016000801b815260200187604051602001611cfc91815260200190565b604051602081830303815290604052815260200160008152508152506040518263ffffffff1660e01b8152600401611d349190613007565b6020604051808303816000875af1158015611d53573d6000803e3d6000fd5b505050506040513d601f19601f820116820180604052508101906106ac9190612e9b565b600b546001600160a01b031633146110ef5760405162461bcd60e51b815260206004820181905260248201527f4f776e61626c653a2063616c6c6572206973206e6f7420746865206f776e657260448201526064016107df565b600b80546001600160a01b038381166001600160a01b0319831681179093556040519116919082907f8be0079c531659141344cd1fd0a4f28419497f9722a3daafe3b4186f6b6457e090600090a35050565b816001600160a01b0316836001600160a01b031603611e845760405162461bcd60e51b815260206004820152601960248201527f4552433732313a20617070726f766520746f2063616c6c65720000000000000060448201526064016107df565b6001600160a01b03838116600081815260056020908152604080832094871680845294825291829020805460ff191686151590811790915591519182527f17307eab39ab6107e8899845ad3d59bd9653f200f220920489ca2b5937696c31910160405180910390a3505050565b611efc8484846119dd565b611f0884848484612090565b61152b5760405162461bcd60e51b81526004016107df9061308a565b6060611f2f82611892565b6000828152600a602052604081208054611f4890612da0565b80601f0160208091040260200160405190810160405280929190818152602001828054611f7490612da0565b8015611fc15780601f10611f9657610100808354040283529160200191611fc1565b820191906000526020600020905b815481529060010190602001808311611fa457829003601f168201915b505050505090506000611fdf60408051602081019091526000815290565b90508051600003611ff1575092915050565b81511561202357808260405160200161200b9291906130dc565b60405160208183030381529060405292505050919050565b61088e8461218e565b60006001600160e01b0319821663780e9d6360e01b14806106ac57506106ac82612201565b61152b84848484612251565b6120678383612385565b6120746000848484612090565b6108805760405162461bcd60e51b81526004016107df9061308a565b60006001600160a01b0384163b1561218657604051630a85bd0160e11b81526001600160a01b0385169063150b7a02906120d490339089908890889060040161310b565b6020604051808303816000875af192505050801561210f575060408051601f3d908101601f1916820190925261210c91810190613148565b60015b61216c573d80801561213d576040519150601f19603f3d011682016040523d82523d6000602084013e612142565b606091505b5080516000036121645760405162461bcd60e51b81526004016107df9061308a565b805181602001fd5b6001600160e01b031916630a85bd0160e11b14905061088e565b50600161088e565b606061219982611892565b60006121b060408051602081019091526000815290565b905060008151116121d05760405180602001604052806000815250611b5a565b806121da8461251e565b6040516020016121eb9291906130dc565b6040516020818303038152906040529392505050565b60006001600160e01b031982166380ac58cd60e01b148061223257506001600160e01b03198216635b5e139f60e01b145b806106ac57506301ffc9a760e01b6001600160e01b03198316146106ac565b60018111156122c05760405162461bcd60e51b815260206004820152603560248201527f455243373231456e756d657261626c653a20636f6e7365637574697665207472604482015274185b9cd9995c9cc81b9bdd081cdd5c1c1bdc9d1959605a1b60648201526084016107df565b816001600160a01b03851661231c5761231781600880546000838152600960205260408120829055600182018355919091527ff3f7a9fe364faab93b216da50a3214154f22a0a2b415b23a84c8169e8b636ee30155565b61233f565b836001600160a01b0316856001600160a01b03161461233f5761233f85826125b1565b6001600160a01b03841661235b576123568161264e565b61237e565b846001600160a01b0316846001600160a01b03161461237e5761237e84826126fd565b5050505050565b6001600160a01b0382166123db5760405162461bcd60e51b815260206004820181905260248201527f4552433732313a206d696e7420746f20746865207a65726f206164647265737360448201526064016107df565b6000818152600260205260409020546001600160a01b0316156124405760405162461bcd60e51b815260206004820152601c60248201527f4552433732313a20746f6b656e20616c7265616479206d696e7465640000000060448201526064016107df565b61244e600083836001612051565b6000818152600260205260409020546001600160a01b0316156124b35760405162461bcd60e51b815260206004820152601c60248201527f4552433732313a20746f6b656e20616c7265616479206d696e7465640000000060448201526064016107df565b6001600160a01b038216600081815260036020908152604080832080546001019055848352600290915280822080546001600160a01b0319168417905551839291907fddf252ad1be2c89b69c2b068fc378daa952ba7f163c4a11628f55a4df523b3ef908290a45050565b6060600061252b83612741565b600101905060008167ffffffffffffffff81111561254b5761254b61290e565b6040519080825280601f01601f191660200182016040528015612575576020820181803683370190505b5090508181016020015b600019016f181899199a1a9b1b9c1cb0b131b232b360811b600a86061a8153600a850494508461257f57509392505050565b600060016125be84611057565b6125c89190612e37565b60008381526007602052604090205490915080821461261b576001600160a01b03841660009081526006602090815260408083208584528252808320548484528184208190558352600790915290208190555b5060009182526007602090815260408084208490556001600160a01b039094168352600681528383209183525290812055565b60085460009061266090600190612e37565b6000838152600960205260408120546008805493945090928490811061268857612688612e6c565b9060005260206000200154905080600883815481106126a9576126a9612e6c565b60009182526020808320909101929092558281526009909152604080822084905585825281205560088054806126e1576126e1613165565b6001900381819060005260206000200160009055905550505050565b600061270883611057565b6001600160a01b039093166000908152600660209081526040808320868452825280832085905593825260079052919091209190915550565b60008072184f03e93ff9f4daa797ed6e38ed64bf6a1f0160401b83106127805772184f03e93ff9f4daa797ed6e38ed64bf6a1f0160401b830492506040015b6d04ee2d6d415b85acef810000000083106127ac576d04ee2d6d415b85acef8100000000830492506020015b662386f26fc1000083106127ca57662386f26fc10000830492506010015b6305f5e10083106127e2576305f5e100830492506008015b61271083106127f657612710830492506004015b60648310612808576064830492506002015b600a83106106ac5760010192915050565b6001600160e01b03198116811461186a57600080fd5b60006020828403121561284157600080fd5b8135611b5a81612819565b60005b8381101561286757818101518382015260200161284f565b50506000910152565b6000815180845261288881602086016020860161284c565b601f01601f19169290920160200192915050565b602081526000611b5a6020830184612870565b6000602082840312156128c157600080fd5b5035919050565b80356001600160a01b03811681146128df57600080fd5b919050565b600080604083850312156128f757600080fd5b612900836128c8565b946020939093013593505050565b634e487b7160e01b600052604160045260246000fd5b600067ffffffffffffffff8084111561293f5761293f61290e565b604051601f8501601f19908116603f011681019082821181831017156129675761296761290e565b8160405280935085815286868601111561298057600080fd5b858560208301376000602087830101525050509392505050565b600080600080608085870312156129b057600080fd5b6129b9856128c8565b93506129c7602086016128c8565b925060408501359150606085013567ffffffffffffffff8111156129ea57600080fd5b8501601f810187136129fb57600080fd5b612a0a87823560208401612924565b91505092959194509250565b600080600060608486031215612a2b57600080fd5b612a34846128c8565b9250612a42602085016128c8565b9150604084013590509250925092565b600082601f830112612a6357600080fd5b611b5a83833560208501612924565b600080600060608486031215612a8757600080fd5b8335925060208401359150604084013567ffffffffffffffff811115612aac57600080fd5b612ab886828701612a52565b9150509250925092565b600060208284031215612ad457600080fd5b611b5a826128c8565b600081518084526020808501945080840160005b83811015612b165781516001600160a01b031687529582019590820190600101612af1565b509495945050505050565b60006020808301818452808551808352604092508286019150828160051b87010184880160005b83811015612be257603f1989840301855281516101008151855288820151818a870152612b7782870182612870565b838a01516001600160a01b0316878b0152606080850151908801526080808501519088015260a0848101519088015260c0808501519088015260e093840151878203948801949094529150612bce90508183612add565b968901969450505090860190600101612b48565b509098975050505050505050565b60008060408385031215612c0357600080fd5b612c0c836128c8565b915060208301358015158114612c2157600080fd5b809150509250929050565b600080600080600060a08688031215612c4457600080fd5b853567ffffffffffffffff811115612c5b57600080fd5b612c6788828901612a52565b9860208801359850604088013597606081013597506080013595509350505050565b602080825282518282018190526000919060409081850190868401855b82811015612d14578151805185528681015187860152858101516001600160a01b031686860152606080820151908601526080808201519086015260a0808201519086015260c08082015115159086015260e090810151908501526101009093019290850190600101612ca6565b5091979650505050505050565b87815260e060208201526000612d3a60e0830189612870565b6001600160a01b03979097166040830152506060810194909452608084019290925260a083015260c09091015292915050565b60008060408385031215612d8057600080fd5b612d89836128c8565b9150612d97602084016128c8565b90509250929050565b600181811c90821680612db457607f821691505b60208210810361135057634e487b7160e01b600052602260045260246000fd5b6020808252602d908201527f4552433732313a2063616c6c6572206973206e6f7420746f6b656e206f776e6560408201526c1c881bdc88185c1c1c9bdd9959609a1b606082015260800190565b634e487b7160e01b600052601160045260246000fd5b818103818111156106ac576106ac612e21565b600082612e6757634e487b7160e01b600052601260045260246000fd5b500490565b634e487b7160e01b600052603260045260246000fd5b600060018201612e9457612e94612e21565b5060010190565b600060208284031215612ead57600080fd5b5051919050565b601f82111561088057600081815260208120601f850160051c81016020861015612edb5750805b601f850160051c820191505b81811015612efa57828155600101612ee7565b505050505050565b815167ffffffffffffffff811115612f1c57612f1c61290e565b612f3081612f2a8454612da0565b84612eb4565b602080601f831160018114612f655760008415612f4d5750858301515b600019600386901b1c1916600185901b178555612efa565b600085815260208120601f198616915b82811015612f9457888601518255948401946001909101908401612f75565b5085821015612fb25787850151600019600388901b60f8161c191681555b5050505050600190811b01905550565b60208082526025908201527f4552433732313a207472616e736665722066726f6d20696e636f72726563742060408201526437bbb732b960d91b606082015260800190565b60208152815160208201526000602083015160408084015260018060a01b03815116606084015267ffffffffffffffff60208201511660808401526040810151151560a0840152606081015160c0840152608081015160c060e0850152613072610120850182612870565b905060a0820151610100850152809250505092915050565b60208082526032908201527f4552433732313a207472616e7366657220746f206e6f6e20455243373231526560408201527131b2b4bb32b91034b6b83632b6b2b73a32b960711b606082015260800190565b600083516130ee81846020880161284c565b83519083019061310281836020880161284c565b01949350505050565b6001600160a01b038581168252841660208201526040810183905260806060820181905260009061313e90830184612870565b9695505050505050565b60006020828403121561315a57600080fd5b8151611b5a81612819565b634e487b7160e01b600052603160045260246000fdfea2646970667358221220dee9652d032d652d940ec2ba6367f76f00d567216ebca906cc2242dbc4e9880f64736f6c6343000811003350726f6f66206f6620576f726b6f75742050726f746f636f6c204f7074696d69736d",
    "linkReferences": {}
  },
  "methodIdentifiers": {
    "approve(address,uint256)": "095ea7b3",
    "balanceOf(address)": "70a08231",
    "createQuest(string,uint256,uint256,uint256,uint256)": "d3f20746",
    "failQuest(uint256)": "401ce822",
    "getApproved(uint256)": "081812fc",
    "getQuestChallenges()": "d9150fe4",
    "getQuests()": "7adcad8b",
    "isApprovedForAll(address,address)": "e985e9c5",
    "minPowTokensEasyDifficulty()": "e28835e3",
    "minPowTokensHardDifficulty()": "493ad1a1",
    "minPowTokensMediumDifficulty()": "5b7292a2",
    "name()": "06fdde03",
    "numOfQuestChallenges()": "dce6846f",
    "onERC721Received(address,address,uint256,bytes)": "150b7a02",
    "owner()": "8da5cb5b",
    "ownerOf(uint256)": "6352211e",
    "questChallenges(uint256)": "759e6a6f",
    "quests(uint256)": "e085f980",
    "renounceOwnership()": "715018a6",
    "safeTransferFrom(address,address,uint256)": "42842e0e",
    "safeTransferFrom(address,address,uint256,bytes)": "b88d4fde",
    "setApprovalForAll(address,bool)": "a22cb465",
    "startQuest(uint256)": "9e563544",
    "submitQuest(uint256,uint256,string)": "6088aea2",
    "supportsInterface(bytes4)": "01ffc9a7",
    "symbol()": "95d89b41",
    "tokenByIndex(uint256)": "4f6ccce7",
    "tokenOfOwnerByIndex(address,uint256)": "2f745c59",
    "tokenURI(uint256)": "c87b56dd",
    "totalSupply()": "18160ddd",
    "transferFrom(address,address,uint256)": "23b872dd",
    "transferOwnership(address)": "f2fde38b"
  },
  "id": 32
}